:100000000C9481010C942E1B0C949E010C949E0167
:100010000C949E010C949E010C949E010C949E01E4
:100020000C949E010C949E010C947D220C944F2301
:100030000C94561D0C949E010C949E010C949E01F0
:100040000C949E010C949E010C949E010C949E01B4
:100050000C949E010C94FB1D0C949E010C949E012B
:100060000C949E010C949E010C949E010C949E0194
:100070000C949E010C949E010C949E010C949E0184
:100080000C949E010C949E010C949E010C949E0174
:100090000C949E010C949E010C949E010C949E0164
:1000A0000C949E010C949E010C949E016B046B04B5
:1000B00097049704FF041D051206120628059E05E5
:1000C000AF05AF05B723DE23D624DE23D6242A24AA
:1000D0004D24D624A424B324010029003A003B0077
:1000E0003C003D003E003F000100010035001E00C5
:1000F0001F00200021002200010001002B0014003D
:100100001A000800150017000100E10004001600A5
:10011000070009000A000B000100E0001D001B00A1
:1001200006001900050000000100010001002F0079
:10013000300001002C0000000000000000002A0038
:1001400035002B004A0000004000410042004300FF
:100150004400450001000100230024002500260082
:1001600027002F00300001001C0018000C001200B6
:1001700013003400310001000D000E000F003300A9
:10018000E1000100010001001100100036003700FD
:100190003800E0000100000001002E022E000100E6
:1001A00001002800010000004D004C00E300E200C7
:1001B00000000000000000002C0344006100630008
:1001C000740079006C002D004D0061006E00750018
:1001D00066006F0072006D00200028003600780075
:1001E0003700290000000E037400730068006F00E0
:1001F0007200740000000403090409023B000201BC
:1002000000A0FA0904000001030101000921110105
:1002100000012240000705810308000109040100D4
:100220000103000000092111010001227B000705E4
:10023000820320000112010002000000084D443634
:100240003601000102000105010902A10185020930
:1002500001A1000509190129081500250195087556
:100260000181020501093009311581257F9502754B
:1002700008810609381581257F95017508810605D5
:100280000C0A38021581257F950175088106C0C0CA
:1002900005010980A101850319012AB7001501266E
:1002A000B700950175108100C0050C0901A10185F9
:1002B0000419012AA002150126A0029501751081DA
:1002C00000C005010906A101050719E029E715008D
:1002D00025019508750181029501750881010507C1
:1002E000190029FF150026FF0095067508810005F5
:1002F000081901290595057501910295017503916C
:1003000001C011241FBECFEFDAE0DEBFCDBF11E088
:10031000A0E0B1E0EAEAFBE402C005900D92A23A47
:10032000B107D9F722E0A2EAB1E001C01D92A43DD5
:10033000B207E1F70E940F140C94D3250C9400002F
:1003400081E0089581E008950E94A2010895089532
:100350000E94A7010895A5E0B0E0E1EBF1E00C9464
:100360003F2549835A833091A90189819A813111AE
:1003700014C0662359F0222349F00E94F407182F75
:10038000682F89819A810E94D00703C00E94E207EA
:10039000182F69817A81812F04C00E94F407698136
:1003A0007A810E94F80E2596E3E00C945B25FC010F
:1003B000262F408151816281738184810E94AB012B
:1003C000089581E00895CF93DF93EC0160E00E94EF
:1003D000D701BE010E94A801DF91CF9108950E942C
:1003E000731008950E946D10089508950E94950657
:1003F0000E94F5012FEF84E39CE021508040904063
:10040000E1F700C0000008950E94F6010E94211E3D
:1004100008950E94F6010E94321E08950F931F93C3
:10042000CF93DF938C0161E00E94D701EC01B8010A
:100430000E94A401882309F440C0B801CE010E94A3
:10044000431A8823D1F1B801CE010E94BF16882338
:10045000A1F1B801CE010E94A919882371F1F80118
:100460008281882331F1CB358DE5D807E9F050F44E
:10047000C115FCE5DF0779F0CF3DDC45D1F40E94E2
:10048000170D0CC0CD35EDE5DE0759F080F0C83A08
:10049000DD4521F00EC00E9404020FC00E94090237
:1004A0000CC00E94590C05C00E94630C02C00E943F
:1004B000670CC8010E94A00101C080E0DF91CF91CC
:1004C0001F910F9108950E942F1D0E948002089590
:1004D0000E9484020E94381D089508950E946D02B2
:1004E000089581E008950E94710208950895CF93C0
:1004F000C82F0E946E028C2F0E947302CF91089524
:1005000080E00E94770208950E94591C0E947702A1
:100510000895CF930E94591CC82F8091A401C81739
:1005200079F0C093A4010E94C41D6093A50170934B
:10053000A6018093A7019093A8018C2F0E947702B7
:10054000CF910895ABE0B0E0E8EAF2E00C944025EA
:100550004F83588769877A878B8761110E94A10B27
:100560009E012F5F3F4F86E0F90111928A95E9F7CE
:1005700085E0FE013796D90101900D928A95E1F749
:1005800089819A814C815D81452B31F09F3F31F407
:1005900091E08F3F19F403C091E001C090E090FF1B
:1005A00009C049815A816B817C818D819E810E9425
:1005B000CD0A05C0C9010E94E1018111F2CF2B963D
:1005C000E2E00C945C25FC01808191810E94260868
:1005D0000895CF93882309F4A8C0C82F8238C1F4A6
:1005E0000E94591C81FDA1C069E380910001909196
:1005F00001010E94F41C0E94C50B2FEF87EE93E0CF
:10060000215080409040E1F700C0000069E319C02C
:10061000833801F50E94591C80FD87C063E58091F5
:100620000001909101010E94F41C0E94C50B2FEF64
:1006300081EE94E0215080409040E1F700C000003E
:1006400063E580910001909101010E94F71C0E94D6
:10065000C50B6BC08438C1F40E94591C82FD65C073
:1006600067E480910001909101010E94F41C0E94B6
:10067000C50B2FEF81EE94E0215080409040E1F7D0
:1006800000C0000067E4DDCF8CEF8C0F813AF8F4F6
:100690008C2F0E946019811148C06C2F809100013D
:1006A000909101010E94BE1C882349F06C2F80911B
:1006B0000001909101010E94F71C0E94C50B6C2F54
:1006C00080910001909101010E94F41CC0CF80E252
:1006D0008C0F883048F4C77081E001C0880FCA953C
:1006E000EAF70E94840BB3CFEBE5EC0FE33040F464
:1006F000F0E0E45AFE4F808190E00E94861C15C015
:10070000E8E5EC0FE73150F4F0E0EE0FFF1FE25D9B
:10071000FE4F808191810E949C1C07C0CD3E28F035
:100720008C2F0E9494140E946615CF9108958823FF
:1007300009F467C0823879F40E94591C81FF61C0B6
:1007400069E380910001909101010E94F41C0E94D4
:10075000C50B69E310C08338B9F40E94591C80FFAF
:1007600050C063E580910001909101010E94F41C4A
:100770000E94C50B63E580910001909101010E94E8
:10078000F71C0E94C50B0895843879F40E94591C07
:1007900082FF37C067E480910001909101010E94BF
:1007A000F41C0E94C50B67E4E6CF9CEF980F913ACA
:1007B00010F4682FE0CF90E2980F983050F48770D3
:1007C00091E001C0990F8A95EAF7892F0E948A0B60
:1007D000D8CF9BE5980F933028F480E090E00E94FA
:1007E000861C089598E5980F973128F480E090E0F2
:1007F0000E949C1C08958D3E20F00E94EF140E94E0
:10080000661508951F93CF93DF93182FEB010E9475
:10081000E902209741F08FE99FE00197F1F700C0CE
:1008200000002197F6CF812F0E949703DF91CF918F
:100830001F910895893319F060E070E002C060E50F
:1008400070E00E9402040895882321F00E94840B26
:100850000E94C50B0895882321F00E948A0B0E94F4
:10086000C50B0895A0E0B0E0E8E3F4E00C943A256D
:100870007C01162FC72FFC01D281058102950F70D4
:100880000E947A0B8823B9F0DD23A9F08C2F807F9A
:10089000803421F080E2810F883068F08091A402DA
:1008A00082FF09C082E00E94270C0E947A0B91E02F
:1008B000D82ED92601C0D12CCC2EC2948FE0C822CC
:1008C0008C2D90E08C30910508F0ACC1FC01EA5A07
:1008D000FF4F0C942A258C2F807FCF70882311F036
:1008E000C295C07FDD2399F0CC2309F487C180E253
:1008F000810F883010F0111104C08C2F0E94840BDE
:1009000003C08C2F0E94940B0E94C50B77C1812FCE
:100910000E949703CC2309F485C180E2810F8830BF
:1009200038F1112329F18C2F0E949A0B24C08C2FAF
:10093000807FCF70803211F0C295C07F112319F0F3
:100940001130A1F13DC08091A40282FD17C0DD23CA
:1009500049F0CC2329F08C2F0E94840B0E94C50BF8
:1009600080E04DC180E00E949703CC2309F45AC176
:100970008C2F0E948A0B0E94C50B54C1DD2371F09D
:10098000002341F0013031F40E94A40B8C2B0E9413
:10099000AE0B48C10E94A40B8C2B1DC0002319F084
:1009A000013009F43FC10E94BB0B25C0DD2321F0BB
:1009B000063008F037C10EC0053008F033C11BC047
:1009C000DD2361F0002331F0F701858180FF16C13E
:1009D0008F7085838C2F0E94240424C1002359F03A
:1009E000193309F01CC1FFEF27EE83E0F1502040DE
:1009F0008040E1F712C18C2F0E942B0413C18C2F71
:100A000086958695837019F0813061F00BC1DD23E6
:100A100021F0812F9C2F937002C080E090E00E9413
:100A2000861C08C1DD2321F0812F9C2F937002C00A
:100A300080E090E00E949C1CFDC0812FDD2319F016
:100A40000E94941402C00E94EF140E946615F2C026
:100A50008C2F8370B1F5D111E9C0412F4295469595
:100A60004770440F440F812F8F7090E09C01042E3B
:100A700002C0220F331F0A94E2F714FF0AC08FE06E
:100A800090E002C0880F991F4A95E2F780959095F3
:100A900002C080E090E0C695C695C370822B932B70
:100AA000C23049F058F4C13019F00E940107BEC0AD
:100AB0000E94F806BBC00E940A07B8C00E94F50653
:100AC000B5C0DD2319F08C2F817001C08695882375
:100AD00009F4ACC0412F429546954770440F440F2E
:100AE000812F8F7090E09C01042E02C0220F331FD3
:100AF0000A94E2F714FF0AC08FE090E002C0880F6A
:100B0000991F4A95E2F78095909502C080E090E0A9
:100B1000C695C695C370822B932BC23049F058F40A
:100B2000C13019F00E946B0781C00E9462077EC02D
:100B30000E9474077BC00E94160778C0CF70DD2327
:100B400039F08C2F0E943007812F0E9424046EC040
:100B5000812F0E942B048C2F0E94400767C0123FF8
:100B600021F128F4103F41F0113FC1F043C0133F81
:100B700019F1143F79F03EC0DD2341F0053008F053
:100B800051C08C2F8F710E9452074CC0063008F064
:100B900049C0F7CF8091A40282FD18C0DD2339F04F
:100BA0008C2F8F710E9430073DC0DD23C9F38C2F3D
:100BB0008F710E94400736C0DD2329F08C2F8F7182
:100BC0000E9424072FC00E941F072CC0DD2349F07C
:100BD000CF718C2F0E94300763E08C2F0E94090C8C
:100BE00021C081E00E94270C0230E0F082E00E94E8
:100BF000270C18C0DD2331F0002391F2812F0E94D1
:100C0000E90210C0002399F2193349F49FEFE7EE8F
:100C1000F3E09150E040F040E1F700C00000812F88
:100C20000E94970388EF8C0D843020F40E94591C99
:100C30000E947702DD2089F00E94760B80FD0DC0B6
:100C4000F70112820E94700B0E943007C7010E94B8
:100C50004A060E94700B0E944007CDB7DEB7E8E05D
:100C60000C9456250F931F93CF93DF93EC0168816B
:100C700079818A810E9431088C010E947D070E943F
:100C8000E406B801CE010E943204DF91CF911F919A
:100C90000F910895CF93DF93EC01988189812B8187
:100CA0003C81232B31F08F3F31F481E09F3F19F4D9
:100CB00003C081E001C080E080FD1AC0CE010E9427
:100CC0000E0281110FC00E947A0B882389F08A815D
:100CD000882371F08091A40282FF0AC082E00E9402
:100CE000270C06C0CE010E943206CE010E94E3010D
:100CF000DF91CF91089580E090E00E94861C80E013
:100D000090E00E949C1C0E94A10B0E94C50B0E94B7
:100D100085150E946615089580910001909101014A
:100D20000E94FA1C0E947B0608950E94910B0E946B
:100D30008C06089592959F70963079F010F4925039
:100D400001C09A50923068F4803F69F018F4883EF0
:100D500040F409C0843F29F406C0883E20F0813F5A
:100D600011F080E0089581E00895FC019081818177
:100D700023813481232B31F08F3F31F481E09F3F79
:100D800019F403C081E001C080E080FD07C08081CC
:100D900091810E9426080E949A06089580E0089595
:100DA000A5E0B0E0E6EDF6E00C9440252596E2E003
:100DB0000C945C25A6E0B0E0E0EEF6E00C94402553
:100DC0002696E2E00C945C25089508950E94E506BD
:100DD00008950E94E60608950E94E9069093E501B1
:100DE0008093E4010E947B0608950E94EC0608951A
:100DF0002091E4013091E501822B932B0E94EC06B7
:100E000008952091E4013091E501822393230E940B
:100E1000EC0608952091E4013091E50182279327A3
:100E20000E94EC0608950E94E50608950E941307AB
:100E30009093E3018093E2010E947B06089580E095
:100E400090E00E941607089521E030E0A90102C059
:100E5000440F551F8A95E2F7CA010E9416070895AC
:100E600021E030E002C0220F331F8A95E2F7809123
:100E7000E2019091E301822B932B0E9416070895C3
:100E800021E030E002C0220F331F8A95E2F720955F
:100E900030958091E2019091E301822393230E9497
:100EA0001607089521E030E002C0220F331F8A9513
:100EB000E2F78091E2019091E301822793270E945B
:100EC000160708952091E2013091E301822B932BC4
:100ED0000E94160708952091E2013091E3018223D8
:100EE00093230E94160708952091E2013091E301B7
:100EF000822793270E94160708950895962F9770CA
:100F0000A1E001C0AA0F9A95EAF793E0769567955C
:100F10009A95E1F7660F771F660F771FFA01E60FC4
:100F2000F71F40E050E0682F70E090819B01042E95
:100F300002C0369527950A94E2F72170219529275A
:100F40002A23292721934F5F5F4F4430510569F7CA
:100F50000895FB01782F777023E0969587952A9561
:100F6000E1F7880F991F880F991FE80FF91F40E0DC
:100F700050E080E0219130E0072E02C036952795A1
:100F80000A94E2F721703327042E01C0220F0A943D
:100F9000EAF7822B4F5F5F4F4430510559F70895B0
:100FA000282F9E3070F4883060F4862F622F70E016
:100FB00028E0929F600D711D11244AEA51E00E94C1
:100FC0007E0708959E3070F4883060F4292F90E0F9
:100FD0006AEA71E038E0239F800D911D11240E9480
:100FE000A907089580E00895A0E0B0E0EAEFF7E0F7
:100FF0000C9439257C010091E2011091E30180916C
:10100000E4019091E501082B192BCFE0D0E0CC242E
:10101000C394D12CC6010C2E02C0880F991F0A94CC
:10102000E2F780239123892B21F4219798F7B12CA3
:1010300007C0BC2EB7018C2F0E94140F0197A9F393
:101040008B2DCDB7DEB7E9E00C945525CF93DF9318
:10105000EC010E94F407BE010E94140FDF91CF91B2
:1010600008951F93CF93DF93EB019091A9019923EA
:1010700021F0CB010E94260813C0882349F0CB0140
:101080000E94F407182F682FCE010E94D00704C0D9
:10109000CB010E94E207182FBE01812F0E94140F7E
:1010A000DF91CF911F9108951F93CF93DF93C0914C
:1010B000E60116E08091E701C81799F0D0E01C9F87
:1010C000F0011D9FF00D1124E851FE4F4081518128
:1010D00062817381848195810E94DA062196C770AE
:1010E000E9CFDF91CF911F9108954091180250915F
:1010F000190260911A0270911B0280911C0290915A
:101100001D020E94DA0608952091E6019091E70100
:1011100056E02917A9F030E0529FF001539FF00DDF
:101120001124E851FE4F7181761306C07081781347
:1011300003C07281741306C02F5F3F4F2770E9CF41
:1011400080E0089581E008950F931F93CF93DF937C
:1011500080911D0282958F7009F05AC080911A0209
:10116000882309F455C08091E6011091E701609150
:10117000180270911902C0911B02D0911C0291E0DB
:101180006F3F09F090E0292F06E0811709F440C075
:10119000209721F07F3F21F030E003C031E001C013
:1011A000322F90E030FD31C0089FF001099FF00D13
:1011B0001124DF01A851BE4F11963C9111973713AE
:1011C00024C03C91361321C012963C9112973111E4
:1011D0001CC013964D915C9114974C1B5D0B483CC1
:1011E000510598F480911D028F70806180931D02DB
:1011F000E351FE4F80818F708061808388E192E0AF
:101200000E944A060E94540803C001968770BDCF11
:10121000DF91CF911F910F910895A1E1B0E0E3E13B
:10122000F9E00C9436258C0185E0F801DE011D966D
:1012300001900D928A95E1F7D8011296EC90909169
:1012400018022091190240911B0250911C02411575
:10125000510531F02F3F31F481E09F3F19F403C075
:1012600081E001C080E080FD79C1F801C080D180BB
:101270008380948088E1A82E82E0B82EF0901A0234
:10128000B401641B750BFF2009F412C180911D028B
:10129000382F307F683C710508F0CCC031118BC00D
:1012A000D21214C0C91212C0FE2CE1100FC08F70F0
:1012B000806180931D020E947508C5010E944A0644
:1012C00080911D02D80115968C9362C181149104FE
:1012D00039F0BFEFDB1206C081E0CB1203C003C0C0
:1012E00081E001C080E080FD03C081E08E2502C066
:1012F00080E090E080FF10C04E2D6D2D8C2D0E945F
:101300008408882349F088E192E00E944A06E8E1D7
:10131000F2E086E0DF019EC08114910439F0BFEF56
:10132000DB1206C081E0CB1203C003C081E001C024
:1013300080E080FD03C081E08E2502C080E090E067
:10134000E82FE170BE2E80FF2CC04E2D6D2D8C2D10
:101350000E948408F82E811124C0CD86DE868D85FA
:101360009E850E942608292F22952F70223018F082
:10137000243090F405C09F7059F0811109C008C154
:101380009F7031F0D80115969C91907F09F400C1AF
:10139000805E883008F4FCC0C8010E944A06FB2C1D
:1013A000F7C0FE2CEE2009F4F3C080911D0281608D
:1013B00080931D0254C0D21206C0C91204C0E110AD
:1013C00002C0F80199C0C8010E94B506882361F1E6
:1013D000EE2051F120911D02822F82958F7090E0B6
:1013E000029774F0809118029091190298878F8368
:1013F00019869B868A862C87CE0107960E944A060C
:1014000086E0F801A8E1B2E001900D928A95E1F73B
:101410000E94A4080E9475080AC0D21611F1C801E2
:101420000E94B50681112CC0C8010E944A06FF2403
:10143000F394AEC03111F1CF782D998A888AA60134
:101440006E2D89890E94D00688E192E00E944A06AA
:1014500086E0D5011D928A95E9F70E947508F12C66
:1014600097C0C912DCCFE110DACFF8018583C8013B
:101470000E944A0686E0D5011D928A95E9F788C048
:10148000EE2091F220911D02822F82958F7090E0C4
:1014900002970CF4B5CF80911802909119029A83AB
:1014A00089831B829D828C822E83CE010196A6CFDA
:1014B000683C710508F044C0FE2CEE2009F4B4CF5E
:1014C000D21230C0C9122EC020911D0220FD21C0B1
:1014D000822F82958F70482F50E041155105C9F039
:1014E000F80125834F30510541F08F5F982F929579
:1014F000907F822F8F70892B8583C8010E944A06B6
:1015000086E0F801A8E1B2E001900D928A95E1F73A
:101510003DC086E0F801A8E1B2E001900D928A9505
:10152000E1F736C0C8010E94B506811169CF8091EC
:101530001D02816080931D02C8010E944A0628C0D6
:10154000782D998A888AA6016E2D89890E94D006F5
:1015500086E0D5011D928A95E9F718C0EE2009F4BE
:1015600063CFC8010E94B506F82E882309F45CCF2A
:1015700086E0F801A8E1B2E001900D928A95E1F7CA
:1015800088E192E00E94E3020E94A4080E9475088C
:101590008F2D6196ECE00C945225ACE0B0E0E3EDC9
:1015A000FAE00C943F254F83588769877A878B87A9
:1015B0009C87CE0107960E940D098823D1F09F8158
:1015C00088852A853B85232B31F08F3F31F481E0DC
:1015D0009F3F19F403C081E001C080E080FD47C057
:1015E0004F81588569857A858B859C850E94DA06AE
:1015F0003EC086E0FE013796DE01119601900D9205
:101600008A95E1F7FF81E8856A857B85611571051B
:1016100031F0EF3F31F481E0FF3F19F403C081E086
:1016200001C080E080FD23C02091E70130E0C901C6
:101630000196877099274091E60150E0841795073D
:10164000F1F1F983EA837D836C8396E0929FD00168
:10165000939FB00D1124A851BE4FFE013196019009
:101660000D929A95E1F78093E7010E94540816E0E5
:101670008091E6019091E701891771F1189FC001EF
:10168000112488519E4F0E940D09882329F1E09171
:10169000E6011E9FF0011124E851FE4F4081518167
:1016A00062817381848195810E94DA068091E601CE
:1016B00090E00196877099278093E601D9CF0E9428
:1016C00095061092E7011092E601E8E1F2E086E06B
:1016D000DF011D928A95E9F72C96E3E00C945B25D7
:1016E000809126028595859585950895809126029D
:1016F0008770089590912602977081E009F480E048
:10170000089580913102089590913102892B809340
:10171000310208958095909131028923809331029E
:10172000089510923102089590913002892B809390
:101730003002089580959091300289238093300281
:101740000895109230020895809127020895089517
:101750000E94A70B08950E94A80B08959091A402DF
:1017600092FF08C090912702981721F080932702DA
:101770000E94AB0B089580912702882329F01092D4
:10178000270280E00E94AB0B0895CF93DF93E09196
:101790000001F0910101809131028083E09100010C
:1017A000F0910101908180913002892B808380919A
:1017B0002702882381F0E0910001F09101019081DE
:1017C000892B808380910001909101010E94B21CBD
:1017D00081110E94BB0BC0910001D091010148E032
:1017E00050E06EE172E0CE010E947B25892B59F01A
:1017F00088E0FE01AEE1B2E001900D928A95E1F73A
:10180000CE010E946D1CDF91CF9108950E94A70B1D
:1018100008959091A40292FF11C098E0899F9001D1
:101820001124262B209326020E9430078091260245
:101830008595859585950E94060C08950E94300730
:1018400008951092260280E00E94060C08952091CF
:1018500026028095822380932602982F977099F410
:1018600030E0482F082E000C550B2417350759F08F
:101870009091A40292FF07C08595859585950E9459
:1018800040070E94210C08959091A40292FB222708
:1018900020F9281769F080FB92F99093A4028091B7
:1018A000A3029091A4020E94910C82E00E94270C56
:1018B00008958091A40282FB882780F991E089270E
:1018C0000E94440C089581E00E94440C089580E039
:1018D0000E94440C089580E090E00E94992521E048
:1018E000883E9E4F09F020E0822F089582E090E02C
:1018F0000E949125089583E090E00E94912508952B
:10190000CF9384E090E00E949125C82F82E290E07E
:101910000E9491252C2F30E0A901582BCA01CF91AC
:101920000895CF93C92F682F84E090E00E949F25EF
:101930006C2F82E290E00E949F25CF910895AB0129
:10194000BC018FE090E00E94B1250895AB01BC017D
:1019500083E190E00E94B125089560E070E0CB0142
:101960000E94A60C089560E070E0CB010E949F0CDD
:101970000E94AD0C089568EE7EEF80E090E00E943A
:10198000BD2560E082E090E00E949F2560E083E05A
:1019900090E00E949F251092E5011092E40160E022
:1019A00084E090E00E949F2564E082E290E00E9443
:1019B0009F2560E085E090E00E949F2560E086E042
:1019C00090E00E949F256FEF87E090E00E949F25A6
:1019D00040E050E0BA0188E090E00E94B12560E06C
:1019E0008DE090E00E949F2540E050E0BA0188E140
:1019F00090E00E94B12560E087E190E00E949F2581
:101A000040E050E0BA018CE190E00E94B12560E036
:101A100070E080E290E00E94BD2540E050E0BA0115
:101A200088E190E00E94B1250E94B30C08950E94C5
:101A3000BB0C0895682F8EE090E00E949F250895CA
:101A40000E94C41D6093460270934702809348022F
:101A50009093490260934202709343028093440240
:101A60009093450208950E940612089508950E94D9
:101A7000360D08950E94360D08950E943A0D08957E
:101A80000E94360D08950E94400D08950E94360D63
:101A9000089588E390E10E944F1C0E94460D0E9429
:101AA000430D08950E94370D0E94360D08950E943F
:101AB0003B100E94760208950E94AF1D0E94F80F0D
:101AC0000E9421120E9469110E94570D0E94A716C0
:101AD0000E942B120E943D0D0895AAE0B0E0E3E7BA
:101AE000FDE00C9438250E948E1184E3E82E82E0FC
:101AF000F82E670100E0F60111916F01802F0E941E
:101B0000591081270F5F0E3019F08823A1F322C0EE
:101B1000811120C00E94B81D8C01809132029091E9
:101B200033020817190709F450C08FEF89838A839D
:101B30001B820E94B81D8160782F9D838C83498110
:101B40005A816B818D810E94A2021093330200930F
:101B500032023BC080914A0281FD0E945F100E94C8
:101B6000330DA82E10E0812F0E945910B82EF701D6
:101B7000C080C82611F100E0DD24D3948C2D8D2186
:101B8000B1F0AA20A1F00E831F8391E08B2D8D214F
:101B900009F490E098870E94B81D8160782F9A8799
:101BA00089874E815F8168858A850E94A2020F5FC6
:101BB000DD0C083019F7F701B0821F5FFFEFEF1A55
:101BC000FF0A1E3081F60E94200D0E9406120E941C
:101BD000A7150E9489022A96EAE00C945425CF9317
:101BE000DF930E94190FEC01811521E5920708F09F
:101BF00046C0811530E5930708F094C0883E9105F2
:101C000028F5803E910508F0EFC0883A910570F400
:101C1000853A910508F07CC08130910509F475C0C2
:101C200008F4DFC0049708F0DFC0DBC08F3B9105EC
:101C300008F0D7C0C85AD0E0CC0FDD1FC15ADE4F24
:101C40000990D881C02DCE019464CFC0C11580E227
:101C5000D80760F4C11521E0D20708F0C5C0CD3E19
:101C6000D10508F4BEC0CE019065BFC0C11530E4F7
:101C7000D30708F4B6C0DF70CE01906AB6C0C115B4
:101C800085E5D807A8F4C11524E5D20708F08BC074
:101C9000C11533E5D30708F070C0C11582E5D80738
:101CA00008F055C0DC2FCC27CE01816F906A9DC013
:101CB000C11529E5D207A0F4C11538E5D30708F00E
:101CC00078C0C11586E5D80708F08BC08C2F0E941C
:101CD000B50F8F7190E0D82FCC27CE01906285C0D0
:101CE000C1152AE5D20708F46AC0CE0190568115C5
:101CF000904208F076C08D2F8F710E94B50FDD27BE
:101D0000D0628F719E01382B6AC081E090E06DC077
:101D1000C55AD0E0C357DE4F8881C82FD0E0CE012E
:101D2000906463C08370992721E030E002C0220FE5
:101D3000331F8A95E2F79C2F9695969580E2989F9F
:101D4000E0011124C22BD32BCE019D684EC0CE01E1
:101D50008370992721E030E002C0220F331F8A955B
:101D6000E2F79C2F9695969580E2989FE0011124CA
:101D7000C22BD32BCE019C6838C0CE01837099272B
:101D800021E030E002C0220F331F8A95E2F79C2F3A
:101D90009695969580E2989FE0011124C22BD32B53
:101DA000CE019A6822C0DC2FCC27CE01846F906AC6
:101DB0001CC0DC2FCC27CE01806F906A16C08C2F00
:101DC0008F700E94B50F94E0D695C7959A95E1F76C
:101DD000CF70D0E0DC2FCC27D0699E01282BC90121
:101DE00004C080E090E001C0CE01DF91CF91089562
:101DF0007E30B8F46830A8F4E72FF0E09EE0899FC9
:101E0000E00DF11D112483E0EE0FFF1F8A95E1F72D
:101E1000E60FF11DEE0FFF1FE852FF4F85919491E1
:101E2000089580E090E008950E94F80E0E94EF0D62
:101E300008958238910569F1B0F48133910509F470
:101E400075C048F48932910509F467C08A3291055A
:101E500009F471C008958533910509F459C0893397
:101E60009105B9F00895833E910589F138F4803EDB
:101E70009105D1F0823E910529F10895863E9105A4
:101E8000C9F1873E9105D9F1843E910509F06CC0F6
:101E900027C02091A30220FD57C021FD55C02091ED
:101EA000A40223FD5BC008958091A30280FD48C079
:101EB0008091A40280FF48C08091A30284FD46C0A7
:101EC00083EE51C08091A30282FF3CC0F5CF809188
:101ED000A30282FD37C08091A40280FD35C0ECCF03
:101EE0008091A40281FF36C08091A30284FD2EC0A0
:101EF00087EE39C08091A30283FF2AC0F5CF80917D
:101F0000A30283FD25C08091A40281FD23C0ECCFF4
:101F10008091A30285FD22C01FC08091A30285FD90
:101F20001BC08091A40283FF19C00AC08091A30244
:101F300086FD16C017C08091A30286FD13C010C095
:101F400089E311C082EE0FC080EE0DC080E00BC0AF
:101F500086EE09C084EE07C085E305C089E203C0B0
:101F60008AE201C081E390E008959091A30292FF7C
:101F70000DC0282F2871283019F4877F846006C08F
:101F8000282F2471243011F48B7F886093FF0DC0BB
:101F9000282F2871283119F4877E846106C0282FE4
:101FA0002471243111F48B7E88612091A40220FFDA
:101FB0000DC0382F3871383019F4877F816006C022
:101FC000382F3171313011F48E7F886021FF0DC0C0
:101FD000282F2871283119F4877E816106C0282FA7
:101FE0002171213111F48E7E886194FD877E0895E0
:101FF00010929F021092A0021092A1021092A202CF
:102000000895CF92DF92EF92FF926B017C010E94C4
:10201000061281110EC00E94C41DC61AD70AE80A12
:10202000F90AC0929F02D092A002E092A102F0921F
:10203000A202FF90EF90DF90CF9008950F931F932F
:102040000E940612882319F00E94C41D0EC00E942F
:10205000C41D00919F021091A0022091A102309115
:10206000A202600F711F821F931F1F910F9108958D
:1020700080E0089508950E946B0C811102C00E94B7
:10208000170D0E94760C80934A020E94800C909358
:10209000A4028093A3020E943A100E947B0C90E05D
:1020A0000E94F5068091E2019091E3010E941307DE
:1020B0000895E82FF0E0EC54FD4F808108950895D5
:1020C00080EA8A95F1F7089500C008950E94601093
:1020D000089508950E94691008950E946A10089555
:1020E0000E94691008950E94701008950E9469105E
:1020F0000895A7E0B0E0EFE7F0E10C943D250E94E1
:1021000006126091C2028823E9F187E0F82E8E0161
:102110000F5F1F4FF8018F2D11928A95E9F7862FD7
:1021200090E0B8018C549D4F0E943912882389F0A9
:102130008091A50290E047E050E0B8018C549D4F9B
:102140000E947B2521E020934B02892B61F410E053
:1021500016C080914B028823D1F3F8011192FA94B2
:10216000E9F710924B02A091A502B0E0AC54BD4F2C
:1021700087E0F80101900D928A95E1F711E00E9445
:10218000F2010DC070E06C547D4F8091A50290E08B
:102190008C549D4F0E94C2120E94761010E0812F35
:1021A0002796E5E00C945925F894E82FE295EF7016
:1021B000F0E031A1282F2F7081E090E001C0880F5E
:1021C0002A95EAF7982F9095932391A392A1892BB2
:1021D00082A3789408950F931F93CF93DF93C8E958
:1021E000D1E089918F3F11F00E94D41081E0CF3966
:1021F000D807B9F7C0E9D1E008E911E089918F3F2C
:1022000011F00E94D4100C171D07C1F7DF91CF9178
:102210001F910F910895A0E0B0E0E1E1F1E10C948D
:102220003A258C01C62FD0E0CE0188569E4F7C0106
:10223000FC0190819F3F09F447C0D62EF894E92F06
:10224000E295EF70F0E081A19F7021E030E001C0E5
:10225000220F9A95EAF7822B81A382A12095282349
:1022600022A378940E946410E0E9F1E048E951E08B
:1022700031E0C12C21912F3F89F0A22FA295AF70A0
:10228000B0E090968C9190E02F7002C09595879564
:102290002A95E2F780FD02C0832F01C080E0C82AA2
:1022A000330F4E175F0731F7F70180818F3F11F031
:1022B0000E94D41061E0C11001C060E08D2D0E9429
:1022C0006610C00FD11FC882CDB7DEB7E8E00C940E
:1022D00056258091020180910201811102C097E090
:1022E00001C090E09093C20287E0891B8093A50211
:1022F0000E94EB108EE0E4EBF2E0DF01982F1D92DC
:102300009A95E9F7E6EAF2E0DF011D928A95E9F78E
:1023100087E00E94CC110E94EF010895AEE0B0E08A
:10232000E4E9F1E10C943D258E010F5F1F4F8EE033
:10233000F80111928A95E9F7F12C6F2DC8010E94DE
:102340000B11F394F7E0FF12F8CF4EE050E0B80124
:1023500086EA92E00E947B2521E0009709F420E0C4
:10236000892B41F08EE0F801A6EAB2E001900D92CF
:102370008A95E1F76091C20270E06C547D4F47E0AE
:1023800086EA92E00E94CD11182F0E947910812BCD
:102390002E96E5E00C9459250895EF92FF920F9345
:1023A0001F93CF93DF937C018B01C42F222349F02D
:1023B00081E080934E020E94B81D90934D0280935D
:1023C0004C0280914E02811102C080E01AC08091BF
:1023D0004C0290914D020E94D01D0597B0F3D0E0C1
:1023E000AE01B701C8010E947B25892B39F0AE01EF
:1023F000B701C8010E94882581E001C080E01092E9
:102400004E02CDB7DEB7E6E00C945825809151021C
:1024100081110DC00E940925811102C082E001C016
:1024200081E080935102823011F40E94042581E002
:1024300090915102913009F080E008950E940612B7
:1024400008950E941E12809302010E9406128111BB
:102450000E94711208950E940612811102C00E940A
:102460007412089581E0909152029A3008F080E051
:1024700008950F931F93CF93DF93EC018B0180910D
:1024800052028A3038F4B801CE010E94BF12811185
:102490001DC00AC080914F02909150020E94D01D31
:1024A000843F914080F715C0809152028F3F19F010
:1024B0008F5F80935202809152028A3060F00E94B6
:1024C000B81D9093500280934F0203C010925202A5
:1024D00002C080E001C081E0DF91CF911F910F9198
:1024E00008950E94E91A08950E94EC1A0895A0E048
:1024F000B0E0EDE7F2E10C943B257901C82F880F9D
:10250000DD0B41155105A9F0FE0193E0EE0FFF1F11
:102510009A95E1F7ED5FFE4F818192818D5A9D4F33
:10252000208130E04217530708F49A01A9010E9464
:102530008825CE010E94D41BD82E8823D1F0011506
:102540001105B9F083E0CC0FDD1F8A95E1F7FE019C
:10255000ED5FFE4F438150E00417150708F4A80112
:10256000CD5FDE4F6C817D816D5A7D4FC7010E942A
:1025700088258D2DCDB7DEB7E7E00C9457250E9456
:10258000B41308950E94CB130895A4E0B0E0EBECDF
:10259000F2E10C943E2560916E0270916F02809181
:1025A0007002909171020E94DF1D643671058105F1
:1025B000910528F10E941E10DC01CB010296A11D9D
:1025C000B11D89839A83AB83BC8300E010E020E0D7
:1025D00030E044E050E0BE016F5F7F4F82E00E9438
:1025E0007712182F882361F00E94C41D60936E0239
:1025F00070936F02809370029093710201C011E09A
:10260000812F2496E4E00C945A25A0E0B0E0EBE0A2
:10261000F3E10C9438257C015B016A010E943212BF
:10262000811103C001E010E002C00AE010E0C1E047
:10263000D0E0B501C701F6010995811115C02196B9
:102640000C171D0794F0CC9F9001CD9F300D300DDD
:10265000112480E090E045E34A95F1F700000196EF
:1026600082179307C1F7E5CF81E0CDB7DEB7EAE087
:102670000C945425A8E0B0E0E0E4F3E10C94382594
:102680007B01C0909F01D090A00101E010E09E016D
:10269000285F3F4F40E050E060E070E080E00E9443
:1026A0007712182F882309F43EC056018FEFA81A1D
:1026B000B80A60916A0270916B0280916C029091ED
:1026C0006D020E94DF1D643671058105910518F1C8
:1026D00007E010E09E012F5F3F4F40E050E060E0D8
:1026E00070E081E00E947712182F67E070E0C5016A
:1026F0000E94A81691E02885281390E0192339F14B
:102700000E94C41D60936A0270936B0280936C02F6
:1027100090936D0211C067E070E0C5010E94A81699
:1027200098858913D5CF87E0F6013196DE011196A1
:1027300001900D928A95E1F7112349F087E0FE019F
:102740003196A3E6B2E001900D928A95E1F787E019
:10275000E3E6F2E0D70101900D928A95E1F7812F2F
:102760002896EAE00C9454250F931F93CF93DF93A0
:10277000EC018B014AE353E10E940513882331F0F9
:1027800045EC52E1B801CE010E940513DF91CF91D3
:102790001F910F9108950F931F93CF93DF93C091D3
:1027A0009F01D091A001CE01019627E0FB01DC0141
:1027B00001900D922A95E1F767E070E00E94A8165B
:1027C0008883688579858A859B8500915F02109151
:1027D00060022091610230916202601771078207E6
:1027E000930751F060935F027093600280936102DF
:1027F000909362020E940110DF91CF911F910F917F
:1028000008950E94D71F0E945C0D0E94E41F089546
:102810000E94E91F0E946D0D0E94032008950E94EE
:102820004F1D0E94BD1F0E94490D0E9401140E946D
:1028300008140E94520DFBCF80917A0280FF06C0DF
:1028400060911F0170E0660F771F26C081FF04C0F2
:1028500060911F0184E005C082FF07C060911F01E5
:1028600088E0689FB001112417C0909179029923E4
:10287000D1F060911E01961788F720911F0188E022
:10288000289F90011124929FA001939F500D112425
:1028900070E0CA010E9416256038710540F4611588
:1028A000710519F406C068E070E0862F08958FE77F
:1028B000089581E0089580917A0280FF08C06091B8
:1028C0001C0170E0759567957595679521C081FF2E
:1028D00006C060911C0170E07595679519C082FF74
:1028E00004C060911C0170E010C09091780299239F
:1028F00099F060911B019617A0F780911C01899FA8
:10290000C001112470E00E9416256038710540F462
:102910006115710519F406C061E070E0862F089515
:102920008FE7089581E008958D3E21F40E941C14E4
:10293000819504C08E3E29F40E941C1480937E026F
:1029400008958F3E21F40E941C14819504C0803F9D
:1029500029F40E941C1480937D020895893F19F484
:102960000E945B1405C08A3F31F40E945B1481957C
:1029700080937F0208958B3F21F40E945B14819520
:1029800004C08C3F29F40E945B1480938002089558
:102990009FE0980F983078F421E030E0A90102C060
:1029A000440F551F9A95E2F7CA0190917C02892B3A
:1029B00080937C0208958D3F21F480917A0281609A
:1029C0000BC08E3F21F480917A02826005C08F3F58
:1029D00029F480917A02846080937A0208958D3E72
:1029E00039F490917E0297FF35C010927E0259C053
:1029F0008E3E29F490917E021916BCF32BC0909163
:102A00007D028F3E29F497FF25C010927D0249C0B8
:102A1000803F19F41916CCF31DC090917F02893FB5
:102A200029F41916BCF410927F023BC08A3F19F4B6
:102A300097FF10C0F8CF8B3F39F49091800297FF39
:102A400009C0109280022DC08C3F21F49091800229
:102A50001916BCF39FE0980F983080F421E030E025
:102A6000A90102C0440F551F9A95E2F7CA0180954B
:102A700090917C02892380937C0213C08D3F21F4C6
:102A800080917A028E7F0BC08E3F21F480917A0272
:102A90008D7F05C08F3F29F480917A028B7F8093D0
:102AA0007A0280917D02811106C080917E0281119F
:102AB00002C01092790280917F02811106C080913C
:102AC0008002811102C01092780208950E94B81D00
:102AD00020917D02211104C020917E02222321F049
:102AE000909377028093760220917F02211104C097
:102AF00020918002222321F090937502809374022A
:102B00008BE792E00E94781C0895EBE7F2E086E004
:102B1000DF011D928A95E9F71092790210927802EE
:102B200010927A020895FC01828181110DC0838187
:102B300081110AC08481811107C091E085818111D2
:102B400001C090E0892F01C081E081700895A6E066
:102B5000B0E0EDEAF5E10C943F2586E0EBE7F2E02A
:102B6000DE01119601900D928A95E1F710927D0297
:102B700010927E0210927F02109280028B8181114E
:102B800004C08C81882309F45FC080917602909103
:102B900077020E94D01DAC0190917902992339F0FF
:102BA0002091200130E02417350758F04DC02091C6
:102BB00073028AE0289F900111242417350718F02A
:102BC00043C09F3F19F09F5F909379021B811123AF
:102BD00061F00E941C14111614F09FEF01C091E0E7
:102BE000989F902D112490937D021C81112361F0F8
:102BF0000E941C14111614F09FEF01C091E0989FE1
:102C0000902D112490937E0230917D023323E1F0C8
:102C100020917E022223C1F045EB3403C001112430
:102C2000992319F090937D0203C081E080937D0287
:102C300035EB2303C0011124992319F090937E02F0
:102C400003C081E080937E028D81811104C08E815A
:102C5000882309F45FC080917402909175020E94EC
:102C6000D01DAC0190917802992339F020911D017B
:102C700030E02417350758F04DC0209172028AE0E9
:102C8000289F900111242417350718F043C09F3F57
:102C900019F09F5F909378021D81112361F00E94CB
:102CA0005B14111614F09FEF01C091E0989F902DD6
:102CB000112490937F021E81112361F00E945B1406
:102CC000111614F09FEF01C091E0989F902D1124F0
:102CD0009093800230917F023323E1F020918002B3
:102CE0002223C1F045EB3403C0011124992319F0CC
:102CF00090937F0203C081E080937F0235EB230332
:102D0000C0011124992319F09093800203C081E03F
:102D100080938002BE016F5F7F4F8BE792E00E943D
:102D2000011D811105C08BE792E00E94931581116E
:102D30000E94661586E0FE013196ABE7B2E0019095
:102D40000D928A95E1F72696E3E00C945B250895B1
:102D5000FC01680F791F8FEF91E3E617F70771F019
:102D60002191822728E030E087FF03C0880F892760
:102D700001C0880F21503109B9F7EFCF0895CF93E3
:102D8000DF93EC01FB018281882309F472C1C43016
:102D9000FDE5DF0760F4CB3F9CE5D907D0F49E0149
:102DA00022503C452431310508F064C112C0C63AB6
:102DB000EDE5DE0771F030F4C2369DE5D90709F084
:102DC00059C107C09E012E5A3D452330310508F0F8
:102DD00051C10E94800C9093A4028093A302C2313F
:102DE000ECE5DE0709F405C108F04BC0C9308CE5FD
:102DF000D80709F4D2C000F5C530ECE5DE0709F4C8
:102E0000B9C078F4C3308CE5D80709F4AAC008F03B
:102E1000AEC0C230DC4509F022C18091A3028160BE
:102E2000A3C0C730FCE5DF0709F4AFC008F0B1C0AC
:102E30008091A302806198C0CD309CE5D90709F448
:102E4000C2C058F4CB30FCE5DF0709F4B0C008F08D
:102E5000B6C08091A3028860A6C0CF309CE5D90798
:102E600009F4BFC008F4B2C0C031FCE5DF0709F4C3
:102E7000BCC0C131DC4509F0F2C08091A3028F7B58
:102E800073C0C1159DE5D90709F4BEC088F5CB3FD5
:102E9000FCE5DF0709F472C0B8F4C4319CE5D9073A
:102EA00009F4C1C008F4ABC0C531DC4509F0D7C096
:102EB0008091A30282FB222720F991E0922790FBC8
:102EC00082F990FB83F950C0CD3F8CE5D80709F417
:102ED00081C008F456C0CE3FECE5DE0709F47DC0A2
:102EE000CF3FDC4509F0BBC08091A40282605DC089
:102EF000C2368DE5D80709F4A6C068F4C230EDE506
:102F0000DE0709F49CC008F484C0C330DD4509F035
:102F1000A6C080E095C0CE3A9DE5D907F1F058F4FF
:102F2000C63ADD4509F09BC08091A302982F909589
:102F300090FB80F919C0CF3A8DE5D807E1F1C03B8D
:102F4000DD4509F08CC08091A40283FB222720F983
:102F500091E0922790FB83F980C08091A402886061
:102F60007CC08091A30282608093A30278C080918C
:102F7000A30219C08091A3028860F6CF8091A402B9
:102F800014C08091A402826068C08091A302806214
:102F9000EBCF8091A3028064E7CF0E9495068091D9
:102FA000A3028068E1CF8460DFCF816056C080914A
:102FB000A3028E7FD9CF8091A402877F4EC08091DB
:102FC000A3028D7FD1CF8091A3021CC08091A30268
:102FD000877FCACF8091A4021AC08091A4028D7FFE
:102FE0003CC08091A3028F7EBFCF8091A3028F7DD2
:102FF000BBCF0E9495068091A3028F77B5CF8091B9
:10300000A302877F8B7FB0CF8091A4028D7F8E7FBC
:1030100024C08091A402982F909591708E7F892B67
:1030200090FB81F91AC00E9495068091A30287FB4C
:10303000222720F991E0922790FB87F995CF81E034
:103040000E941A0D0CC08091A30284FB222720F954
:1030500091E0922790FB84F987CF8093A40280911E
:10306000A3029091A4020E94910C0E94950680E018
:1030700001C081E0DF91CF910895893279F1E0F4C8
:10308000843161F1A0F4873009F075C010927302A9
:1030900094E19093200180931F018CE380931E01A3
:1030A00088E080931C0188E280931B0164C092EE4B
:1030B000980F9A30F0F05FC0803509F444C028F4CE
:1030C0008F3409F058C08AE03FC0813529F082353D
:1030D00009F051C081E038C08FEF36C08091830283
:1030E000882379F110928302109282021092810259
:1030F00042C08D5180938302833099F038F481303F
:1031000069F08230D9F480E291E00DC0853099F009
:1031100078F0863099F48BE191E005C083E792E086
:1031200002C08FE191E0909382028093810223C0DC
:103130008EE191E0F8CF8CE191E0F5CF109283021F
:103140001AC080E0089586EFE0918102F09182023A
:10315000309789F02081082E000C990B820F911D69
:103160008F3F910519F014F08FEF04C097FF02C054
:10317000108201C0808381E008958B3109F469C019
:1031800058F58B3009F490C078F4863009F446C0C5
:1031900020F4853009F44CC08CC0873009F44BC052
:1031A000883009F481C085C0803109F465C068F4B5
:1031B0008E3009F07EC080914A0282FB222720F9DE
:1031C00091E0922790FB82F94DC0863109F46CC0E2
:1031D000893109F469C06DC08A32E9F060F4873240
:1031E00009F464C028F48E3108F463C08D514FC0D7
:1031F0008932F1F05EC0833450F48A3308F046C05F
:10320000853309F453C0883309F44EC052C0833467
:1032100009F44CC04EC00E94170D46C080914A026E
:10322000817F8E7F80934A0281E08093840208959B
:103230000E94040239C080914A02982F90959170A3
:1032400090FB80F980934A0291112EC0897F877F7D
:1032500010C080914A0281FB222720F991E0922739
:1032600090FB81F980934A029923F1F080914A0200
:10327000816080934A0218C080914A0283FB222712
:1032800020F991E0922790FB83F9ECCF895321E05C
:1032900030E0A90102C0440F551F8A95E2F7CA0128
:1032A0000E94F5060E94950681E0089581E090E075
:1032B000F7CF80E0089580E008950E945B1908959B
:1032C000CF93C82F80918402813069F038F082302A
:1032D000C1F58C2F0E943D1881E039C00E94810BFE
:1032E000823289F504C00E94810B823261F48C2FF6
:1032F0000E945D19811104C08C2F0E94BD181FC04F
:1033000081E090E01CC08C2F0E945B19811116C0D7
:10331000C43189F058F4CB3089F0C031B1F482E087
:103320008093840288E30E943D1808C0C93219F0D6
:10333000C83321F00AC01092840207C081E0817076
:1033400006C01092840280E002C080E0F8CFCF91E6
:103350000895CF93DF9386319C4541F5EB010E94A0
:10336000810B982F8A8120910001309101018823DF
:1033700079F09A7A81E009F480E0809385029111D6
:1033800002C069E201C065E3C9010E94F41C0AC0E1
:1033900080918502811102C069E201C065E3C90123
:1033A0000E94F71C0E94C50B80E001C081E0DF9104
:1033B000CF9108950F931F93CF93DF93C42FD22FF4
:1033C000FC0182818823B1F0409388020E94B81DDD
:1033D000909387028093860280E28C0F883008F0F9
:1033E0004DC0C77081E001C0880FCA95EAF70E94FE
:1033F000240444C080918802481330C08091860222
:10340000909187020E94D01D883C910538F510E20A
:103410001D0FCD17B9F080E28C0F883040F4C770D3
:1034200081E001C0880FCA95EAF70E942B0418308A
:1034300010F581E09D2F977001C0880F9A95EAF7EB
:103440000E942404802F0E941A041830B8F4D77008
:1034500081E001C0880FDA95EAF70AC080E28C0F9C
:10346000883060F4C77081E001C0880FCA95EAF720
:103470000E942B0403C0802F0E941A04DF91CF9179
:103480001F910F9108950F939C01CB01243F4CE5B0
:10349000340731F188F4293DFCE53F07D9F02A3D96
:1034A0004CE5340779F1283D3C45A9F506E221EECB
:1034B00041EE68ED7CE52BC0263FFCE53F07E1F0DF
:1034C000A8F0273F3C4539F507E225EE46EE67EFC9
:1034D0007CE51DC007E225EE45EE69ED7CE517C0F1
:1034E00006E221EE40EE64EF7CE511C007E225EE36
:1034F00044EE65EF7CE50BC006E221EE42EE66EF9E
:103500007CE505C008E221E045EE6AED7CE50E941D
:10351000DA1980E008C0FC018281882319F010923A
:10352000880201C081E00F9108958EE1489B02C09E
:103530008150E1F7489BFECF0895589880E28A9524
:10354000F1F7589A0895FC012AE02A95F1F728E04E
:1035500090E080E031E040E14A95F1F7880F489B28
:1035600002C08160932700C0000040E14A95F1F756
:10357000215089F720E12A95F1F729B100C0000018
:1035800030E13A95F1F7217092272081920F9083D4
:103590000895A1E0B0E0EFECFAE10C943C2519822B
:1035A0008C017C01E60EF11C0E151F0551F00E94E6
:1035B000951ACE0101960E94A31AF80181938F01FA
:1035C000F3CF81E09981911180E02196E6E00C949F
:1035D0005825509A589A08955098589AE89AE9E6CA
:1035E000F0E080818C7F80830895615091E001C07C
:1035F000990F6A95EAF720E031E0992361F0492FAD
:10360000482319F0589A232701C0589840E24A9558
:10361000F1F79695F2CF222311F0589A01C05898ED
:1036200080E28A95F1F758980895FF920F931F93BF
:10363000CF93DF93EC018C01060F111DC017D1074A
:1036400041F0F9900E949D1A68E08F2D0E94F51AB2
:10365000F5CFCDB7DEB7E5E00C9459251F920F9258
:103660000FB60F9211240F931F932F933F934F93F5
:103670005F936F937F938F939F93AF93BF93EF93DA
:10368000FF93CF93DF931F92CDB7DEB719820E94CD
:10369000951ACE0101960E94A31A082F0695069549
:1036A0000695902F96959570202F2570920F292FB3
:1036B000237096959695920F877089135FC08981C4
:1036C00081115CC0043008F059C080E18A95F1F79F
:1036D000589A509A82E08A95F1F700C0589888E08D
:1036E000089F80011124D801AD5FBE4F1696ED9161
:1036F000FC9117973097A9F060919F017091A001FC
:1037000014962D913C911597260F371F11968D9188
:103710009C911297680F791F13964C9113978C9177
:103720000995F801ED5FFE4F6381662351F08091AA
:103730009F019091A00124813581820F931F0E94E7
:10374000151B0E949D1A80E18A95F1F758985098B0
:10375000589A80E18A95F1F7F801ED5FFE4F60819C
:10376000662351F080919F019091A00121813281C7
:10377000820F931F0E94C91A0E94951A0F90DF9121
:10378000CF91FF91EF91BF91AF919F918F917F91D9
:103790006F915F914F913F912F911F910F910F90DA
:1037A0000FBE0F901F9018950F931F93CF93DF9329
:1037B000843091050CF06DC0EC01F894509A589843
:1037C00085E08A95F1F700009C2F969595702C2F37
:1037D0002570920F892F83709695969523E0CC0FD4
:1037E000DD1F2A95E1F7980F8E01092B0E949D1A83
:1037F00084E08A95F1F700C068E0802F0E94F51AF6
:1038000080E18A95F1F75098589A489902C000C013
:10381000FCCF87E090E0489B08C0019721F4509AC4
:10382000589A789436C000C0F6CFFE01ED5FFE4F87
:103830006381662381F080919F019091A001248192
:103840003581820F931F0E94C91A811104C0509ABA
:10385000589A78941FC00E94951A80E28A95F1F7D1
:103860005898509A80E18A95F1F7CD5FDE4F6881D4
:10387000662351F080919F019091A00129813A81A6
:10388000820F931F0E94151B0E949D1A789481E05D
:1038900001C080E0DF91CF911F910F910895909327
:1038A000A3018093A201089590938F0280938E02CA
:1038B00008950E940612811103C080918902089523
:1038C000E0918E02F0918F02309729F00190F08103
:1038D000E02D0995089580E00895E0918E02F09121
:1038E0008F02309721F00280F381E02D0995089531
:1038F000E0918E02F0918F02309739F022E0DC01E6
:103900002C930480F581E02D0995089520918C0277
:1039100030918D022817390771F090938D028093B2
:103920008C02E0918E02F0918F02309721F0068098
:10393000F781E02D0995089520918A0230918B023C
:103940002817390771F090938B0280938A02E091D7
:103950008E02F0918F02309721F00084F185E02DE6
:1039600009950895FC01329697E080E0915029F086
:1039700021912223D9F38F5FF9CF0895662349F06F
:10398000FC01329608962191621729F0E817F90791
:10399000D1F780E0089581E008959C01FC01329602
:1039A0009FEF80E04191461789F09F3F19F4411144
:1039B00001C0982F8F5F8630A9F79F3F39F0F9013A
:1039C000E90FF11D97FDFA956283089508959C0112
:1039D0002A5F3F4FFC014281461301C012820196CB
:1039E00082179307B9F708950E94CD1C08950E948D
:1039F000E71C0895029626E0FC0111922A95E9F74A
:103A0000089546E050E00E947B2521E0892B09F4CF
:103A100020E0822F089508950E940B1D089583E0F1
:103A2000809390020E940C1D0895811102C081E0D4
:103A300001C082E0809390020E940C1D08950E94B4
:103A4000151D089581E0809390020E940C1D089539
:103A50000E94221D089508950E942B1D08950E9422
:103A60002C1D08950E942B1D08950E942B1D089562
:103A70000E942B1D0895CF930E94351D0E948E1128
:103A80000E94321DC0E08C2F0E945910811104C089
:103A9000CF5FCE30C1F701C081E0CF91089585B7E7
:103AA000806885BF85B7806885BF08951F920F9293
:103AB0000FB60F9211248F939F93AF93BF93809172
:103AC0009102811113C08091C3029091C402A09110
:103AD000C502B091C6024196A11DB11D8093C302DB
:103AE0009093C402A093C502B093C602BF91AF9158
:103AF0009F918F910F900FBE0F901F9018958091FE
:103B0000CB02843031F10E9463021092910220E4D2
:103B100088E190E00FB6F894A895809360000FBEFE
:103B20002093600083B7817F846083BF83B7816007
:103B300083BF7894889583B78E7F83BF0FB6F89440
:103B4000A895809160008861809360001092600069
:103B50000FBE08950E9495060E946802089582E0B3
:103B600084BD93E095BD9AEF97BD80936E00089554
:103B70002FB7F8948091C3029091C402A091C5021E
:103B8000B091C6022FBF08952FB7F8946091C30279
:103B90007091C4028091C5029091C6022FBF089512
:103BA0009C014FB7F8948091C3029091C402A091F8
:103BB000C502B091C6024FBF821B930B0895CF92EE
:103BC000DF92EF92FF922FB7F894C090C302D0908B
:103BD000C402E090C502F090C6022FBFA701960173
:103BE000261B370B480B590BCA01B901FF90EF9008
:103BF000DF90CF90089578941F920F920FB60F9296
:103C000011248F939F93AF93BF938091C3029091A0
:103C1000C402A091C502B091C6020196A11DB11DBA
:103C20008093C3029093C402A093C502B093C602CE
:103C3000BF91AF919F918F910F900FBE0F901F90EA
:103C4000189587E797E790930108809300089AE01A
:103C500088E10FB6F894A895809360000FBE90930A
:103C60006000FFCF9AE088E10FB6F894A8958093A2
:103C700060000FBE90936000FFCF80919D02089579
:103C8000089522E02093E9002FEF3091E8002150C1
:103C900035FD06C035ED3A95F1F700002111F5CF5D
:103CA0002091E80025FF0BC040E050E066E070E0A6
:103CB0000E9476208091E8008E778093E800089536
:103CC000CF93DF9321E02093E9002FEF3091E800BC
:103CD000215035FD06C035ED3A95F1F70000211170
:103CE000F5CF2091E80025FF14C0EC0140E050E042
:103CF00068E070E00E9476208091E8008E778093E3
:103D0000E80088E0FE01A5E9B2E001900D928A95F5
:103D1000E1F7DF91CF91089580939202709394021E
:103D2000609393028091CB02843001F582E080930E
:103D3000E9008FEF9091E800815095FD06C095ED68
:103D40009A95F1F700008111F5CF8091E80085FF89
:103D50000DC040E050E063E070E082E992E00E9434
:103D600076208091E8008E778093E8000895BC016A
:103D700084E00E948C1E0895BC0183E00E948C1E8A
:103D800008958091CA02811109C00E9401220E94F7
:103D90005E228091E20084608093E2000895109298
:103DA000CA0208950E94281D08956091C70281E00B
:103DB000611101C080E00E940F1D08959091CB0217
:103DC00081E0943009F080E06091C7020E94151DE7
:103DD000089542E061EC81E00E947A2142E261ECC8
:103DE00082E00E947A219091CB0281E0943009F028
:103DF00080E06091C7020E941F1D08958091CD024E
:103E0000833009F461C030F4813071F0823009F4FC
:103E10009BC008958A3009F487C08B3009F46CC0C8
:103E2000893009F0A9C020C08091CC02813A09F004
:103E3000A3C08091E800877F8093E8008091D00242
:103E40009091D102892B21F468E085E992E003C0CA
:103E500060E080E090E070E00E94BB208091E8008C
:103E60008B778093E80008958091CC02813209F02D
:103E700083C08091D0029091D102029708F07CC05B
:103E80008091E800877F8093E8008091E80082FDC0
:103E900005C08091CB028111F8CF6EC02091F30054
:103EA0008091F20090E0922B029731F48091F10022
:103EB000813011F0863021F48091F10080939D02D1
:103EC0008091E8008B7754C08091CC02813A09F050
:103ED00053C08091D0029091D102892B09F04CC03F
:103EE0008091E800877F8093E8008091E80080FF60
:103EF000FCCF80912D0137C08091CC028132E1F559
:103F00008091D0029091D102892BB1F58091E80087
:103F1000877F8093E8000E94AF218091CE0280933A
:103F20002D010E94950608958091CC02813221F5E1
:103F30008091E800877F8093E8000E94AF21809104
:103F4000CF0280939E0208958091CC02813AA1F421
:103F50008091E800877F8093E8008091E80080FFEF
:103F6000FCCF80919E028093F1008091E8008E77D3
:103F70008093E8000E94AF21089584B7877F84BFB3
:103F80000FB6F894A89580916000886180936000D6
:103F9000109260000FBE90E080E80FB6F894809316
:103FA0006100909361000FBE0E94221D08950E943F
:103FB00001220E945E22E2EEF0E080818460808334
:103FC00078940E94E924089581E291E00E94541CB3
:103FD00008958091CB028530A9F48091CB02853081
:103FE00079F40E947F1D8091C9028823B1F30E9459
:103FF0003B1D882391F30E9460200E949506EDCF1F
:104000000E94AA1D089508950E9407200895292F4F
:10401000332723303105C9F060F42130310581F0B8
:104020002230310509F044C08BE390E02AEF31E003
:1040300043C021323105E1F02232310549F138C067
:1040400082E190E025E332E037C099278130910585
:1040500049F028F0029761F5E8EBF1E005C0E6EFE2
:10406000F1E002C0E6EEF1E0849190E09F0124C00F
:104070006115710541F061307105D1F489E090E07E
:1040800025E232E019C089E090E02CE032E014C073
:104090006115710541F06130710551F48BE790E0D5
:1040A00027E432E009C080E490E022EC32E004C072
:1040B00080E090E020E030E0FA0131832083089531
:1040C00080E189BD82E189BD09B400FEFDCF809108
:1040D000D8008F7D8093D8008091E000826080932B
:1040E000E0008091E00081FDFCCF0895A0E0B0E009
:1040F000ECE7F0E20C943A25EC018B017A010E9486
:10410000CE21811133C0E114F10439F0F70180812F
:104110009181081B190BC80FD91FC12CD12C011577
:10412000110519F18091E80085FD16C08091E80025
:104130008E778093E800E114F10449F0F701808163
:104140009181C80ED91ED182C08285E00FC00E9425
:10415000CE21882321F30AC089918093F100015078
:104160001109FFEFCF1ADF0ADACF80E0CDB7DEB753
:10417000E8E00C9456252091D2023091D302261704
:10418000370748F06115710539F42091E8002E7762
:104190002093E80001C0B901FC0120E06115710520
:1041A00079F18091CB028823F1F18530F1F1809192
:1041B000E80083FD3CC08091E80082FD2EC0809124
:1041C000E80080FFEBCF2091F3008091F20090E0B7
:1041D000922B6115710551F08830910538F42191C9
:1041E0002093F100615071090196F3CF21E0089707
:1041F00009F020E08091E8008E778093E800CECF30
:104200002111CFCF0AC08091CB02882361F0853085
:1042100061F08091E80083FD0AC08091E80082FF90
:10422000F2CF80E0089582E0089583E0089581E070
:1042300008952091D2023091D3022617370748F013
:104240006115710539F42091E8002E772093E8007C
:1042500001C0B901FC0120E06115710591F1809167
:10426000CB02882309F440C0853009F43FC0809117
:10427000E80083FD3DC08091E80082FD2FC0809161
:10428000E80080FFE9CF2091F3008091F20090E0F8
:10429000922B6115710559F08830910540F42491F5
:1042A0002093F1003196615071090196F2CF21E01F
:1042B000089709F020E08091E8008E778093E8006D
:1042C000CBCF2111CCCF0AC08091CB02882361F0E3
:1042D000853061F08091E80083FD0AC08091E8009C
:1042E00082FFF2CF80E0089582E0089583E0089590
:1042F00081E00895982F973068F59093E90098171A
:1043000039F07091EC002091ED005091F00003C065
:10431000242F762F50E021FD02C09F5FECCF30911B
:10432000EB003E7F3093EB003091ED003D7F30930A
:10433000ED003091EB0031603093EB007093EC00B6
:104340002093ED005093F0002091EE0027FDE5CF83
:1043500080E008958F708093E90081E00895809156
:10436000CC0287FF11C08091E80082FD05C08091DA
:10437000CB028111F8CF11C08091E8008B770BC080
:104380008091CB02882349F08091E80080FFF8CF2C
:104390008091E8008E778093E80008952091E400F2
:1043A0003091E50095E64091EC00842F817040FF4C
:1043B00023C08091E80080FD1DC08091CB0288233E
:1043C00099F0853099F08091EB0085FD11C0409106
:1043D000E4005091E5002417350729F3915011F0BE
:1043E0009A01E1CF84E0089582E0089583E0089582
:1043F00081E0089580E008954091E80042FFDDCF1C
:1044000008950E9470220E947822E0EEF0E0808100
:1044100081608083E8EDF0E080818F77808319BC34
:10442000A7EDB0E08C918E7F8C9380818F7E80830E
:104430001092CA0208950F931F93CF93DF930E94A7
:1044400070220E947822C8EDD0E088818F7788831F
:1044500088818068888388818F7D888319BC1092C9
:10446000CB021092C7021092C9021092C80200EE4D
:1044700010E0F80180818B7F808388818160888350
:1044800042E060E080E00E947A21E1EEF0E080818D
:104490008E7F8083E2EEF0E0808181608083808186
:1044A00088608083F80180818E7F8083888180612D
:1044B0008883DF91CF911F910F910895E8EDF0E08F
:1044C00080818F7E8083E7EDF0E080818160808352
:1044D00084E082BF81E08093CA020E941B2208957B
:1044E000E8EDF0E080818E7F80831092E2000895F5
:1044F0001092DA001092E10008951F920F920FB609
:104500000F9211242F933F934F935F936F937F9359
:104510008F939F93AF93BF93EF93FF938091E100AD
:1045200082FF0BC08091E20082FF07C08091E10012
:104530008B7F8093E1000E94E8248091DA0080FF65
:104540001FC08091D80080FF1BC08091DA008E7F51
:104550008093DA008091D90080FF0DC080E189BD91
:1045600082E189BD09B400FEFDCF81E08093CB02DA
:104570000E94C11E05C019BC1092CB020E94CF1E22
:104580008091E10080FF19C08091E20080FF15C09A
:104590008091E2008E7F8093E2008091E200806152
:1045A0008093E2008091D80080628093D80019BC8B
:1045B00085E08093CB020E94D51E8091E10084FFAC
:1045C00030C08091E20084FF2CC080E189BD82E18F
:1045D00089BD09B400FEFDCF8091D8008F7D809306
:1045E000D8008091E1008F7E8093E1008091E2000D
:1045F0008F7E8093E2008091E20081608093E200F0
:104600008091C702882311F084E007C08091E30005
:1046100087FD02C081E001C083E08093CB020E944D
:10462000DE1E8091E10083FF29C08091E20083FFBC
:1046300025C08091E100877F8093E10082E0809334
:10464000CB021092C7028091E1008E7F8093E1003F
:104650008091E2008E7F8093E2008091E200806191
:104660008093E20042E060E080E00E947A21809145
:10467000F00088608093F0000E94D21EFF91EF91BD
:10468000BF91AF919F918F917F916F915F914F916A
:104690003F912F910F900FBE0F901F9018951F9272
:1046A0000F920FB60F9211242F933F934F935F9366
:1046B0006F937F938F939F93AF93BF93CF93DF932A
:1046C000EF93FF93C091E900CF708091EC00D82F59
:1046D000D17080FDD0E81092E9008091F000877FD2
:1046E0008093F00078940E9493231092E9008091C7
:1046F000F00088608093F000CD2BCF70C093E9006C
:10470000FF91EF91DF91CF91BF91AF919F918F91E9
:104710007F916F915F914F913F912F910F900FBEBD
:104720000F901F901895AAE2B0E0E9E9F3E20C942B
:104730003F25ECECF2E08091F100819322E0E43D32
:10474000F207C9F70E94FE1E8091E80083FF2EC188
:104750008091CC029091CD02492F50E04A30510512
:1047600008F024C1FA01EE59FF4F0C942A25803835
:1047700021F0823809F01AC108C08091C8029091D6
:10478000C902992389F082600FC08091D0028F7096
:10479000873008F00BC18093E9008091EB0085FB26
:1047A000882780F91092E9009091E800977F909314
:1047B000E8008093F1001092F100D1C0282F2D7FE6
:1047C00009F0F4C0882319F0823061F0EFC08091C5
:1047D000CE02813009F0EAC0933009F080E0809386
:1047E000C9022EC08091CE0281112AC08091D002D0
:1047F0008F702FEF280F263008F0D8C08093E90083
:104800002091EB0020FF1CC0933021F48091EB003D
:10481000806214C09091EB0090619093EB0021E0D6
:1048200030E0A90102C0440F551F8A95E2F740937A
:10483000EA001092EA008091EB0088608093EB0020
:104840001092E9008091E800877F8093E8000E9441
:10485000AF21ACC08111AAC01091CE021F77809108
:10486000E3008078812B8093E3008091E800877FCC
:104870008093E8000E94AF218091E80080FFFCCF88
:104880008091E30080688093E300111102C082E010
:1048900001C083E08093CB0289C08058823008F049
:1048A00085C08091CE029091CF028C3D53E0950758
:1048B00079F583E08A838AE289834FB7F894DE0131
:1048C000139620E03EE051E2E32FF0E050935700D2
:1048D000E49120FF03C0E295EF703F5FEF708E2FF1
:1048E00090E0EA3010F0C79601C0C0968D939D937A
:1048F0002F5F243149F74FBF8091E800877F809375
:10490000E8006AE270E0CE0101960E94BB2016C06A
:104910006091D0027091D102AE014F5F5F4F0E9453
:104920000420BC01892B09F441C09091E800977FD5
:104930009093E80089819A810E9419218091E80072
:104940008B778093E80032C0803881F58091E80051
:10495000877F8093E8008091C7028093F100809167
:10496000E8008E7772CF811121C08091CE029091A4
:10497000CF0299270297D4F48091E800877F809333
:10498000E8008091CE028093C7020E94AF218091FF
:10499000C702811106C08091E30087FD02C081E05B
:1049A00001C084E08093CB020E94E91E8091E80060
:1049B00083FF0AC08091E800877F8093E8008091A0
:1049C000EB0080628093EB00AA96E3E00C945B25F9
:1049D0000895CF938091CB028823A1F0C091E90084
:1049E000CF709091EC00892F817090FD80E8C82BEA
:1049F0001092E9008091E80083FD0E949323CF701C
:104A0000C093E900CF9108950E9401221092CB0239
:104A10000895E8EDF0E08081806180838AE18A95E5
:104A2000F1F700C08091D9008170089597FB072E9F
:104A300016F4009407D077FD09D00E94672507FC83
:104A400005D03EF4909581959F4F0895709561959E
:104A50007F4F0895EE0FFF1F0590F491E02D09940C
:104A60002F923F924F925F926F927F928F929F927E
:104A7000AF92BF92CF92DF92EF92FF920F931F936C
:104A8000CF93DF93CDB7DEB7CA1BDB0B0FB6F8941D
:104A9000DEBF0FBECDBF09942A88398848885F845D
:104AA0006E847D848C849B84AA84B984C884DF80CE
:104AB000EE80FD800C811B81AA81B981CE0FD11DB2
:104AC0000FB6F894DEBF0FBECDBFED010895AA1B4F
:104AD000BB1B51E107C0AA1FBB1FA617B70710F0E9
:104AE000A61BB70B881F991F5A95A9F7809590951B
:104AF000BC01CD010895FB01DC0104C08D91019042
:104B0000801921F441505040C8F7881B990B089533
:104B1000FB01DC0102C001900D9241505040D8F7DA
:104B20000895F999FECF92BD81BDF89A992780B575
:104B30000895A8E1B0E042E050E00C94C525262F8E
:104B4000F999FECF92BD81BDF89A019700B4021683
:104B500039F01FBA20BD0FB6F894FA9AF99A0FBE31
:104B600008950396272F0E94A0250E949F25252F98
:104B70000E94A025242F0C94A0250196272F0E9487
:104B8000A0250C949F25DC01CB01FC01F999FECFF7
:104B900006C0F2BDE1BDF89A319600B40D924150C5
:0A4BA0005040B8F70895F894FFCFD5
:104BAA0028020100000001000000000000000701C7
:104BBA0000000004080000000000002808503C071C
:104BCA00143D1E601E411EBC1EB71E401E01E2009F
:104BDA00E900EA00B500B600B700CD008301CC00B9
:104BEA008A0192019401210223022402250226024B
:104BFA0027022A02B300B4006F007000818283E2A8
:104C0A0000E900EA00B500B600B700CD008301CC88
:104C1A00008A01920194012102230224022502261C
:104C2A000227022A02B300B4006F00700081828357
:104C3A00F4F5F6F73133323690946697C634355325
:024C4A00020066
:00000001FF
